:020000021000EC
:10900000006000205D930100A9930100AB93010073
:10901000AD930100AF930100B19301000000000087
:10902000000000000000000000000000B3930100F9
:10903000B593010000000000B7930100B99301004F
:1090400085B30100BB93010055C0010069B5010063
:10905000BB930100BB9301000DBE0100A5C0010040
:10906000BB930100C5C90100BB930100BB93010084
:10907000BB930100BB930100BB930100BB930100B4
:10908000BB93010091A30100BB93010019CA010029
:10909000B9A30100BB930100A1F90100BB9301003A
:1090A000BB930100BB930100BB930100BB93010084
:1090B000BB930100BB930100000000000000000012
:1090C000BB930100BB930100BB93010045C00100AD
:1090D000BB930100BB930100BB93010000000000A3
:1090E0000000000000000000000000000000000080
:1090F0000000000000000000000000000000000070
:10910000000000000000000000000000000000005F
:10911000000000000000000000000000000000004F
:10912000000000000000000000000000000000003F
:10913000000000000000000000000000000000002F
:10914000000000000000000000000000000000001F
:10915000000000000000000000000000000000000F
:1091600000000000000000000000000000000000FF
:1091700000000000000000000000000000000000EF
:1091800000000000000000000000000000000000DF
:1091900000000000000000000000000000000000CF
:1091A00000000000000000000000000000000000BF
:1091B00000000000000000000000000000000000AF
:1091C000000000000000000000000000000000009F
:1091D000000000000000000000000000000000008F
:1091E000000000000000000000000000000000007F
:1091F000000000000000000000000000000000006F
:10920000354936480A1A02D0072291438D4634491F
:1092100034480A1A06D00722914381F309880222B2
:1092200082F3148830483149314A00F044F831481B
:109230003149324A00F03FF831483249324A00F0B1
:109240003AF832483249334A00F035F83248334967
:10925000334A00F030F833483349344A00F02BF8F1
:1092600033483449344A00F026F83448344900225F
:1092700000F02CF833483449002200F027F8334836
:109280003349091A082902DB002202604160314A91
:1092900090471F481F49884205D00268043003B434
:1092A000904703BCF7E700208646EC4600200021EB
:1092B000294A9047FEE7884207D0521A05D0037822
:1092C00001300B700131013AF9D17047884202D068
:1092D00002700130FAE7704700600020005800205B
:1092E0000060002000600020AC1A02000025002071
:1092F00030250020C0930100C09301003C0B020008
:10930000AC1A02000025002000250020380C0200C5
:10931000380C0200380C0200380C0200380C020035
:10932000380C0200380C0200380C0200AC1A0200A3
:10933000DC1A0200302500203025002030250020D6
:1093400040320020403200204032002040320020D5
:10935000403A00207393010001D701000C48804778
:109360000C484FF00701884385460B488047FFF7BC
:1093700047BF0A480A490B4A884207D0521A05D00B
:10938000037801300B700131013AF9D170470000C8
:10939000BD930100006000208DFF0100380C020029
:1093A0000025002000250020FEE7FEE7FEE7FEE79F
:1093B000FEE7FEE7FEE7FEE7FEE7FEE7704700BFD9
:1093C0007047037813F0040F18D003F00303012B48
:1093D00003D0022B0AD0012070470388C3F3831304
:1093E0000A68134402330B600120704742880B68FF
:1093F00003EB921302330B6001207047002070478B
:1094000030B585B02A4C04F5836001F0F8F804F219
:10941000144001F0F4F860680390A5682840023019
:1094200004EB8000043003A9FFF7CBFF40B303989F
:109430002840831C1E4800EB83000430F3E7039BA5
:10944000591C03912B400233194901EB83035B68DC
:109450004DF822300132012AF1D99DF8003003F095
:109460000303012B0ED0022B16D1BDF80640BDF828
:1094700002309B090333039A02EB930303930CE03E
:109480000022E8E7BDF80640BDF80030C3F38312C0
:10949000039B1344039300E00024064801F0B4F852
:1094A00010B1034B039A5A60204605B030BD00BF8F
:1094B00000260020142A002010B50B4BFF229A60D2
:1094C00000221A605A60C3F81824C3F8142483F8E1
:1094D0002024064801F046F9044608B1204610BD94
:1094E000034801F0CEF9F9E700260020A40B0200A2
:1094F000380C0200034B58681B68984214BF0020C8
:1095000001207047002600202DE9F04186B0FFF7CA
:10951000F1FF002840F02581054693480023C0F85C
:109520001834BFF34F8F4368059384682340023398
:1095300000EB8300043005E0234002338A4800EB4F
:109540008303181D05A9FFF73CFF00282FD0864B89
:10955000D3F818346BBB844B1A68059B9A42EBD83E
:10956000814B5A60F9E0059B591C05912340023359
:109570007D4901EB8303596802AB43F822100132A5
:10958000012AF0D99DF8083003F00303022B12D012
:10959000012B7BD0744BD3F81044002C00F0CE800C
:1095A00023689B6820469847E3681C68F5E700221B
:1095B000E6E70022E4E7BDF80A309F093E46502F57
:1095C00028BF502666F38F13ADF80A3006F1080164
:1095D000664801F0E2F8054600283DD001F010F998
:1095E000002308220DEB0201284601F01CF9059A20
:1095F00024EA020301339B009E423AD933B1224050
:109600000232594901EB8202111D00E058494BB169
:10961000DCB24BB1DFF858814BB1F6B2DBB2F31AD2
:10962000DEB205E0F4B2F4E74FF00008F4E70026FC
:1096300008232246284601F0F6F804F10803B8F1A1
:10964000000F04D032464146284601F0ECF80337BB
:10965000059B03EB97070597002D9BD0424BD3F852
:109660001044D3F81834002B47D0284601F0CEF828
:109670006EE002EA040302333B4901EB8301082355
:1096800032460431284601F0CEF8E0E7BDF8082064
:10969000C2F38313062B28BF062363F38912ADF8A8
:1096A000082002339900314801F077F80546002878
:1096B000D2D001F0A5F8002308220DEB02012846C4
:1096C00001F0B1F800260827BDF80830C3F3831372
:1096D000B342C1D9059B5A1C05922340023322494B
:1096E00001EB83013B4604221144284601F09BF81C
:1096F00004370136E8E7E3681C684CB1E3685B793E
:10970000002BF8D023681B68294620469847F2E7CB
:10971000284601F07BF800238DF807300DF1070093
:1097200000F0C8FE104BD3F8183413B90E4B059A4D
:109730005A609DF8070000F0E9FE09E00D4B0E4865
:10974000C01AC00800040D4940F0020000F018F8EB
:10975000FFF7D0FE80F00100C5B2284606B0BDE894
:10976000F0810025F9E700BF00260020A40B0200CD
:109770000C260020B80B0200F80B0200440C02007B
:109780002DE9F04782B005460E46384FBC680023ED
:109790008DF807300DF1070000F08CFED7F800902F
:1097A000BA687B68A3EB090313440133012B13D878
:1097B0002E4F07F21C480121404600F00AFFFFF738
:1097C0001FFE0146404600F004FFBA687B68396816
:1097D0005B1A13440133E9E700224FF0010868F3F4
:1097E000010242F004026FF38912204F3968BB680E
:1097F0000B40023307EB83035A60023139609DF856
:10980000070000F083FE4FEA154A002107F21C40D2
:1098100000F0B4FE80F3100009EB080323404AEA8D
:109820000040023307EB8303586004EA0903023364
:1098300007EB83031A7965F3C5021A719A886FF3EF
:1098400089129A805A6866F39F225A6068F301026F
:109850006FF382021A7197F820341BB1FFF754FEA0
:109860000028FBD102B0BDE8F08700BF0026002031
:109870002DE9F04F85B08346019192464E4CA56884
:1098800002F103094FEA990909F1020700238DF853
:109890000F300DF10F0000F00DFED4F80080A2682B
:1098A0006368A3EB0803134401339F4213D9424C6E
:1098B00004F21C460121304600F08BFEFFF7A0FDAC
:1098C0000146304600F085FEA268636821685B1A95
:1098D00013440133E9E70022022363F3010242F05B
:1098E000040269F39F52344C2168A3680B40023391
:1098F00004EB83035A600F4427609DF80F0000F0CB
:1099000005FE08F10203A4682B40E41A0134A40008
:10991000A2453CD80233284800EB83005246019907
:10992000043006F0B6FC4FEA1B46234C002104F23B
:109930001C4000F023FE80F3100008F101032B40CF
:1099400046EA0046023304EB83035E6005EA08053D
:10995000023504EB85052B796BF3C5032B71AB88BE
:109960006FF38F13AB80E9886AF38F11E9800222CD
:1099700062F301036FF382032B7194F820341BB15F
:10998000FFF7C2FD0028FBD105B0BDE8F08F0A4EFD
:10999000023306EB83002246019F3946043006F06D
:1099A00078FCAAEB04023B462344194606F10C005E
:1099B00006F06FFCB7E700BF002600202DE9F0435A
:1099C00083B005460E460192DFF81481D8F80840AE
:1099D00000238DF803300DF1030000F06BFDD8F883
:1099E0000070D8F80820D8F80430DB1B134401338A
:1099F000022B17D8DFF8E88008F21C4901214846FD
:109A000000F0E7FDFFF7FCFC0146484600F0E1FDF1
:109A1000D8F80820D8F80430D8F800105B1A13449E
:109A20000133E5E70022012363F3010242F004025F
:109A300063F389122A4908688B680340023301EBFB
:109A400083035A60033008609DF8030000F05EFD58
:109A5000BA1C00237BB904EA020102A800EB8300D0
:109A600050F804CC881C1E4901EB8001C1F804C0E9
:109A700001330132EEE74FEA1549DFF86480002137
:109A800008F21C4000F07AFD80F310007B1C23409C
:109A900049EA0040023308EB8303586004EA0703F5
:109AA000023308EB83031A7965F3C5021A719A88A9
:109AB000012161F389129A805A6866F39F225A60E5
:109AC00061F301026FF382021A7198F820341BB11E
:109AD000FFF71AFD0028FBD103B0BDE8F08300BFFB
:109AE000002600202DE9F04385B005460E4602927F
:109AF0000393DFF81C81D8F8084000238DF8073065
:109B00000DF1070000F0D6FCD8F80070D8F8082056
:109B1000D8F80430DB1B13440133032B17D8DFF8CC
:109B2000F08008F21C490121484600F052FDFFF781
:109B300067FC0146484600F04CFDD8F80820D8F8EC
:109B40000430D8F800105B1A13440133E5E7002213
:109B5000012363F3010242F00402022363F389123A
:109B60002B4908688B680340023301EB83035A607A
:109B7000043008609DF8070000F0C8FCBA1C002300
:109B8000012B0FD804EA020104A800EB830050F86F
:109B900008CC881C1E4901EB8001C1F804C00133C8
:109BA0000132EDE74FEA1549DFF86480002108F241
:109BB0001C4000F0E3FC80F310007B1C234049EACA
:109BC0000040023308EB8303586004EA07030233C2
:109BD00008EB83031A7965F3C5021A719A8802218A
:109BE00061F389129A805A6866F39F225A600121B4
:109BF00061F301026FF382021A7198F820341BB1ED
:109C0000FFF782FC0028FBD105B0BDE8F08300BF60
:109C1000002600202DE9F04385B005460E4601924E
:109C200002930C9B0393DFF81C81D8F808400023B3
:109C30008DF803300DF1030000F03CFCD8F8007003
:109C4000D8F80820D8F80430DB1B13440133042B68
:109C500017D8DFF8F08008F21C490121484600F0CF
:109C6000B8FCFFF7CDFB0146484600F0B2FCD8F83F
:109C70000820D8F80430D8F800105B1A13440133D8
:109C8000E5E70022012363F3010242F0040203230B
:109C900063F389122B4908688B680340023301EB98
:109CA00083035A60053008609DF8030000F02EFC25
:109CB000BA1C0023022B0FD804EA020104A800EB0F
:109CC000830050F80CCC881C1E4901EB8001C1F8C0
:109CD00004C001330132EDE74FEA1549DFF8648033
:109CE000002108F21C4000F049FC80F310007B1CAE
:109CF000234049EA0040023308EB8303586004EA3A
:109D00000703023308EB83031A7965F3C5021A715E
:109D10009A88032161F389129A805A6866F39F2218
:109D20005A60012161F301026FF382021A7198F8FF
:109D300020341BB1FFF7E8FB0028FBD105B0BDE8DC
:109D4000F08300BF0026002010B5094BD3F8104463
:109D5000012283F820244CB1E36801225A71236860
:109D60005B6820469847E3681C68F4E710BD00BFB5
:109D70000026002000B585B00021019102910390DA
:109D800001AA44F2010000F003F805B05DF804FBFD
:109D900010B572B6FFF7D8FFFFF7B6FB0028FBD16E
:109DA000104C114BE41AE4082404104944F001005B
:109DB000FFF7E6FC0E4B1B6813F0010F00D000BE4E
:109DC0000C4944F00200FFF7DBFCBFF34F8F0A4958
:109DD000CA6802F4E062094B1343CB60BFF34F8FB4
:109DE00000BFFDE7F80B0200B80B02005C0C02009C
:109DF000F0ED00E0680C020000ED00E00400FA0560
:109E0000034BC3F80805034BC02283F811237047A6
:109E10000010014000E100E010B50B4B4FF4803220
:109E2000C3F84423C3F80423084A4FF40031C2F8AE
:109E30008011116001241C604FF43C60044B2343EB
:109E40009847044B1C7010BD0010014000E100E079
:109E5000800C0200C92B002070B50E4B4FF400326D
:109E6000C3F880200C4D4FF48033C5F84833C5F853
:109E7000083301266E60094C34434FF43C60A04720
:109E8000AE600025064B1D604FF43C60A047054BBB
:109E90001D7070BD00E100E000100140800C020068
:109EA000D82B0020C92B002010B4104B1C6854B1D3
:109EB000026823689A4217D89A1A2260C4610B4B31
:109EC000186010BC70471860FBE7521A1C46DB692B
:109ED00013B119689142F8D313B11968891A19603E
:109EE0000260C361E061ECE72346F1E7DC2B002070
:109EF00070B5184B1E683446354624B1844202D0F2
:109F00002546E469F9E714B3A5420CD02168E3695A
:109F1000EB6113B11A680A441A600E4B1868801B73
:109F200018BF012070BDF3690A4A1360002BEDD100
:109F30000123094A9360094A00211160084A1370FD
:109F40004FF43C60074B43F001039847DEE70020E5
:109F5000E8E700BFDC2B002000100140D82B0020D8
:109F6000C82B0020800C0200024B4FF40032C3F8D3
:109F70000021704700E100E0024B4FF48012C3F86B
:109F80000021704700E100E008B543698069984707
:109F900008BD00001B4B1868002832D070B51A4B62
:109FA000D3F80445194B1B68E41A24F07F440025BC
:109FB00004E000230374FFF7E7FF304648B103686D
:109FC000A34206D8E41A1D44C669037C002BF4D0D2
:109FD000EFE70F4B1A780F4B1B789A4207D00D4BC7
:109FE0001A780D4B43F82250FFF7C6FF70BD0133BE
:109FF000DBB2084A1370022BF1D1134600221A700B
:10A00000EDE77047DC2B002000100140D82B00202A
:10A01000D42B0020D52B0020CC2B0020104B1B78FC
:10A02000104A1278934217D00133DBB20C4A1370F6
:10A03000022B0DD00A4B1A780B4B53F822300360D9
:10A040000A4A11680B4423F07F43136001207047D4
:10A05000134600221A70EDE700230360184670478C
:10A06000D42B0020D52B0020CC2B0020D82B002077
:10A0700070B400250E4B1B68BBB11C68844212D81B
:10A08000001B254400241C60DE69094C2660DC6846
:10A09000002CEFD06E1826F07F465E609C6014683E
:10A0A000DC611360E6E7241A1C6070BC704700BFD7
:10A0B000DC2B0020F8B50546414B1F68002659E00F
:10A0C000404A11784B1CDBB213709278934228D02F
:10A0D0004A000A44D0003B4B03449C681B79022B86
:10A0E00023D0032B30D0012B44D1237C002B41D132
:10A0F000DFF8D0C04A005018C3006344D8686060DD
:10A100001869A0605B69E3601144CB009C44DCF8F3
:10A110001830A3612C4B1B78002B30D000236360D8
:10A120002DE0284B00221A70D2E72046FFF7E0FE10
:10A13000034600B93346002222741E461AE000226C
:10A140001A74DA691E4B1A601D4B1B68002BF6D17E
:10A1500010E0521A22F07F42A36893421CD99A1A47
:10A16000226000236360A36001222274E361204621
:10A17000FFF79AFE9DB1002DA2D02C46ED696168D3
:10A18000124B1A688B1A23F07F4311488342E0D8A0
:10A19000A26813442360E4E700232360E1E7094B4E
:10A1A0001A785B789A42E6D12EB9054B1B68BB4200
:10A1B00003D0012000E00120F8BD0020FCE700BF33
:10A1C000DC2B0020BC2A0020C82B0020D82B00202C
:10A1D000FEFF7F00F8B51C4B1B688BB31F681B4B41
:10A1E000D3F804551A4B1C682E1B26F07F46033605
:10A1F000184B1B780BB3B7422CBFE419A41924F0F9
:10A200007F44124BC3F84045D3F804355B1B23F061
:10A210007F430333641B24F07F44A3420CD90B4BD0
:10A22000D3F80425C3F840254FF43C600A4B43F0B3
:10A2300001039847FFF798FEF8BDFFF7EDFDDAE759
:10A24000FFF70AFEF8E700BFDC2B002000100140FA
:10A25000D82B0020C92B0020800C020070B582B0E2
:10A26000002301930D4B1E680D4B1D686846FFF7D8
:10A27000D5FE044660B90198FFF71CFF00B914B180
:10A280002846FFF7A7FF074B00221A7002B070BDE7
:10A2900001AA31460098FFF7EBFEECE7D82B00202F
:10A2A000DC2B0020C82B0020014B5870704700BFEA
:10A2B000BC2A00200B4A53780133DBB292789A42D1
:10A2C0000CD0084A12789A420AD0037005484378A5
:10A2D00003EB4303DA001044043070470023F0E737
:10A2E00000207047BC2A0020F0B583B007460E4618
:10A2F00015461C4600238DF806300DF1060000F0CF
:10A30000D9F80DF10700FFF7D5FFB0B101220270B7
:10A3100047600C4AD2F804258260C660056144613A
:10A320009DF80700FFF7C0FF00249DF8060000F02D
:10A33000EDF824B1204603B0F0BD0424F5E7FFF7A3
:10A340001BFEF7E70010014030B583B004460D4610
:10A3500000238DF806300DF1060000F0ABF80DF18A
:10A360000700FFF7A7FF70B1057044609DF8070074
:10A37000FFF79AFF00249DF8060000F0C7F824B10B
:10A38000204603B030BD0424F5E7FFF7F5FDF7E7FD
:10A3900008B5084B0022C3F84021C3F84421C3F894
:10A3A0004821C3F84C21C3F80021C3F80421FFF76A
:10A3B000F1FD08BD0010014008B5FFF74FFF08BDD3
:10A3C00010B5FFF749FD0F4B00241C705C700B2289
:10A3D0009A700D4B1C600D4B1C700D4B1C700D4B7F
:10A3E0004FF48012C3F88021C02183F814131A603F
:10A3F0002046FFF705FD084BD3F80425074B1A60EC
:10A40000204610BDBC2A0020DC2B0020D42B0020CD
:10A41000D52B002000E100E000100140D82B0020E7
:10A42000094B9B7843B14AB150B10368187C48B9D5
:10A43000187459745A617047082070470720704794
:10A440000720704708207047BC2A00200D4B9B78DE
:10A4500083B188B1042911D943698BB110B5437C0C
:10A46000012B05D0002413462246FFF73DFF10BD07
:10A470000C46F8E70820704708207047072070470F
:10A4800008207047BC2A002008B5094B9B7843B1CF
:10A4900048B143694BB1002303740221FFF754FF15
:10A4A00008BD0820FCE70820FAE70820F8E700BF0D
:10A4B000BC2A0020EFF3108272B6114B9B68C3B91F
:10A4C00030B40F4901238B600E4BD3F880400E4D02
:10A4D0002C400C60C3F88050D3F884404C604FF09F
:10A4E000FF31C3F884100023037002B962B630BC98
:10A4F0007047012303700AB962B67047704700BF06
:10A50000E02B002000E100E0FC06FFBD084B9B684B
:10A510006BB160B9EFF3108172B6054B1868054A4C
:10A5200010605868506000229A6001B962B67047A6
:10A53000E02B002000E100E008B54B0901F01F010D
:10A54000012202FA01F100EB830000F021F808BDBE
:10A5500008B54A0901F01F01012303FA01F1C943BB
:10A5600000EB820000F02AF808BD4B0950F82300E8
:10A5700001F01F01C84000F00100704750E8002FB3
:10A580000B4640E8003C9CF0000FF7D110467047A6
:10A5900050E8003F43EA010240E8002C9CF0000F25
:10A5A000F6D11046704750E8002F02EA010340E858
:10A5B000003C9CF0000FF6D11046704750E8003F79
:10A5C00003EA010240E8002C9CF0000FF6D110468F
:10A5D000704750E8003F03EB010240E8002C9CF07C
:10A5E000000FF6D11046704750E8003FA3EB010280
:10A5F00040E8002C9CF0000FF6D11046704708B5DB
:10A600000121FFF7C5FF08BD08B50021FFF7CBFF0B
:10A6100008BDC368008A00FB01307047C368C91ACF
:10A62000038AB1FBF3F1C8B27047B0B110B404466D
:10A6300082684368D21AD2B201680B60531EDBB243
:10A6400032B121680A68501C086013701A46F5E799
:10A6500023680020187110BC70470E20704730B579
:10A6600083B0044600238DF807300DF10700FFF793
:10A6700021FF2268136861688B4217D9591E116047
:10A6800013F8011C2046FFF7C4FF0546A3682268A3
:10A6900011685B1ADBB21179994200D213719DF8EF
:10A6A0000700FFF733FF284603B030BD0025F6E76B
:10A6B00070B582B005460E4600238DF807300DF1C7
:10A6C0000700FFF7F7FE2B681C68621C1A60314612
:10A6D0002846FFF7A3FF20709DF80700FFF716FF3D
:10A6E00002B070BD2DE9F84F04468A469DF828B0A7
:10A6F000C58890F805C00CFB05FCACF1040CA9461C
:10A70000191DB1FBF5F705FB17111668F018604528
:10A7100001D9ACEB0306166017B12468013FFBE7D3
:10A720006D1AB54228BF3546B8460BE02A46194691
:10A7300005F0AFFD2468761BA8444D46B14528BFFF
:10A740003546394666B10AEB08032144081DBBF1C2
:10A75000000FEBD02A460146184605F09AFDE9E7BE
:10A76000BDE8F88F08B5FFF760FF08BDF8B50146F2
:10A770004679701E0A460023834202D212680133D2
:10A78000FAE71768002405E00D683846FFF790FFE8
:10A7900001342946A642F7D8F8BD2DE9F041064616
:10A7A000B0F81080A8F1040739440331B1FBF7F782
:10A7B000FFF755FF10B305460024047101234371D0
:10A7C000A8F10408A0F80680FFB2013F06608046A9
:10A7D000BC4210D23046FFF742FF40B16A790132E5
:10A7E0006A71C8F80000066001348046F0E7284628
:10A7F000FFF7BCFF00252846BDE8F0810025FAE7F9
:10A8000008B501210430FFF7E4FE08BD10B5044689
:10A8100001210430FFF7E8FEC0B200B110BD2046B0
:10A82000FFF7A4FFFAE700B585B00392002200927B
:10A8300003AAFFF757FF05B05DF804FB41DF70473F
:10A8400010B50024054B1C70054B1C60BFF35F8FD7
:10A850000449054800F023F8204610BDF42B0020E1
:10A86000F82B0020880C0200EC2B002008B505F026
:10A870007DF818B920BF40BF20BF08BDFFF7DEFF3D
:10A88000FBE78268002393608268136182685361EA
:10A890008268D36082685360826813607047016089
:10A8A0000B6843604A68934200D0704700234360BE
:10A8B000FBE7436833B1026891680B444360526818
:10A8C000934200D0704700234360FBE70F4A02F534
:10A8D00094718A4218D210B404E010D204F1080234
:10A8E0008A420ED28B1ADB1003EBD3735B1002EBA0
:10A8F000C30452F833308342EFD92146F0E7606851
:10A9000000E0002010BC704700207047B40C02002B
:10A9100008B5FFF7DBFF034608B1184608BD014B39
:10A92000FBE700BFA00C020070B50D460024012615
:10A9300002E000260134E4B2012C17D8104B03EBDF
:10A9400045031B5D002BF5D00D4B03EB45031A5D52
:10A95000013AD2B21A551B5D002BEAD1094B53F8CC
:10A9600025301B68DB6928469847E3E706B970BDC8
:10A97000044B53F825300221586802F01BF8F6E723
:10A98000182C0020FC2B00202DE9F04707460C4630
:10A990001646056895F8200001F0C4FE4EB3B04697
:10A9A000A9698E4238D204EB440293002B445A68C2
:10A9B000914202D00AB1964242D37B681B79394A50
:10A9C000FF21D154002342462146786801F0A6FFBA
:10A9D000630023449F002F44387A01F089FE787A7F
:10A9E00001F086FE04EB4404A3001D446E60BDE844
:10A9F000F087630023444FEA8308A84498F80900CD
:10AA000001F090FE98F8080001F072FE7B681B7957
:10AA1000244AFF21D154E5E78EB2630023444FEA74
:10AA20008308A84498F8080001F07CFE98F8090013
:10AA300001F05EFE7B681B791A4AFF21D154D1E7F1
:10AA400000230321786801F069FF95F820A07B6856
:10AA50001B6803F5A67904EB440293002B449B7A10
:10AA6000C3B104EB44029300E85801F0CDF802466C
:10AA70004946504601F018FE95F8200001F038FED6
:10AA80007B681B79074AD4547B681A79064B43F8D4
:10AA9000228097E704EB44029300E85801F0A4F801
:10AAA0000246E5E7102C0020242C00202DE9F04779
:10AAB00082B0066896F82140002C40F09B808946C1
:10AAC000984615460C4607464B0059188A003244F2
:10AAD0000021516082F80A8003228DF80420026868
:10AAE0004B4499000A44937AB3FA83F35B098DF8D7
:10AAF000053001238DF8063001A9284600F0BAFF81
:10AB00008246002879D109EB49029300F550B8F14B
:10AB1000000F16D0012202FA05F54FF0A043C3F84A
:10AB20000C550025012D14D809EB49039A00501942
:10AB30000830304401F064FD002861D10135EDB2E8
:10AB4000F0E7012202FA05F54FF0A043C3F80855DB
:10AB5000E7E7630023449D003544287A01F0E2FDD5
:10AB6000687A01F0DFFDB8F1000F33D004EB440246
:10AB70009300F05801F048F80546B8F1000F31D0C5
:10AB800004EB44029300F05801F02EF880467B68F5
:10AB9000196804F15000630023449A0016442A46C1
:10ABA00001EB8001307A01F07FFD7B681968424635
:10ABB00001F5A471707A01F077FD0123F3727B68CF
:10ABC0001A79114B03EB420300221A55504602B08A
:10ABD000BDE8F08704EB44029300F05801F004F85C
:10ABE0000546CAE704EB44029300F05801F00CF864
:10ABF0008046CCE74FF0080AE8E74FF0040AE5E7A3
:10AC00004FF0040AE2E700BF182C0020F8B5074611
:10AC1000066896F8200001F023FD002425E001F0ED
:10AC20001FFD04EB4402930033442B44FF221A72AD
:10AC30000135EDB2012D08D804EB440293003344F2
:10AC40002B44187AFF28F3D0E9E7254604EB4402A9
:10AC50009300F058B0F1FF3F0BD105EB4505AB0079
:10AC600033440022DA720134E4B2012C0AD8002500
:10AC7000E0E700F061FF04EB440293004FF0FF3285
:10AC8000F250EAE7786801F01DFEF8BD41680A79E4
:10AC90000D4B9B5CDBB2FF2B12D0FE2B12D0096850
:10ACA00003F5A87351F82330084951F8221099424E
:10ACB00001D001207047044BFF21995400207047B8
:10ACC0000020704701207047102C0020242C002009
:10ACD000F8B5046894F82130022B2CD117460E46A3
:10ACE000054601EB4102930023445B689F421BD061
:10ACF000FFF7CCFF08BB6B681B79124AFE21D154C9
:10AD00003A4631462846FFF73FFE2B68DB69B3B170
:10AD10006B681A790C4B03EB420302219955686862
:10AD200001F033FE002007E0E36913B142681079B7
:10AD30009847002000E00820F8BD1120FCE7002023
:10AD4000FAE700BF102C0020182C00200368188B95
:10AD50007047000070B505460E461446FFF7F6FF33
:10AD600004FB00F0044AA2FB0032C2F34F1231464A
:10AD70002846FFF7ADFF70BD1F85EB512DE9F0436D
:10AD800085B0002900F0BE800F46066896F8213095
:10AD9000002B40F0BA809046054600F00FFA10B143
:10ADA000852840F0B88000F05BFE68B15B4B1B6803
:10ADB00003F0F003302B0ED0594B01221A70FF2301
:10ADC00086F8203000231AE000F00AFE0028EDD0BB
:10ADD0004FF003099BE0524B00221A70EFE7590035
:10ADE000C818820032440020D072FF2010725072C6
:10ADF000CA1891004FF0FF3272500133DBB2012BC1
:10AE0000EDD906F1200001F0FBFB08B900240BE0AE
:10AE10002846FFF7FBFE4FF0040978E02846FFF7CD
:10AE2000F5FE74E00134E4B2012C13D857F8242065
:10AE3000B2F1FF3FF6D03B191B7A21462846FFF7B7
:10AE400035FE81460028E9D1002221462846FFF739
:10AE50003FFFE7E73C69002301E064080133B4F5F4
:10AE6000805F01D3082BF8D92D4A12780AB103B9B3
:10AE700001238DF8083000238DF809308DF80A3051
:10AE800007238DF80B30686803790393254A02A9DC
:10AE900001F086FC814688BB6B683C691B68D3F86F
:10AEA00010354FF00009210F2401DBB2C3F120005F
:10AEB000A3F12002DC4001FA00F0044321FA02F27F
:10AEC0001443B461686801F025FD0127009704234D
:10AED00022460221686801F03FFD0221686801F006
:10AEE00069FDC6F81C806B681B790F4A42F8235035
:10AEF0000E4AFF21D15486F8217008E02846FFF75A
:10AF000085FE04E04FF00B0901E04FF008094846C8
:10AF100005B0BDE8F0834FF00409F8E7E80F00F052
:10AF2000382C002029A90100FC2B0020102C002027
:10AF30002DE9F04105460668002416E02A68630002
:10AF40001819810008460A44917A074606EB000862
:10AF5000B1FA81F14909305800F066FEF05900F06D
:10AF60001FFE0023C8F804300134012C0ED86B6892
:10AF70001A790E4B03EB420300221A5504EB4402EC
:10AF800093003344DB7A002BEED0D7E76B681B7954
:10AF9000074AFF21D154686801F0BCFC686801F0E1
:10AFA00075FC022386F82130BDE8F081182C0020C2
:10AFB000102C00202DE9F84380460568406801F018
:10AFC00073FC0221D8F8040001F0F4FC95F820008D
:10AFD00001F0A8FB00241BE004EB44029300EA58B4
:10AFE000012393404FF0A042C2F80C357700BA1904
:10AFF000930005EB0309E85800F0E4FD99F8080018
:10B0000001F090FB99F8090001F08CFB0134E4B2E7
:10B01000012C17D8264604EB440293001A462B4411
:10B02000DB7A002BF2D0D8F80030114613449B7A1B
:10B03000002BD1D16A58012393404FF0A042C2F8AF
:10B040000835D3E7012385F82130BDE8F88303688C
:10B050000BB11A68026018467047000008B500F08E
:10B0600083F9024B00229A7008BD00BF3C2C0020DF
:10B0700000B1704708B5064B01225A700548FFF72A
:10B08000E6FF18B1436800209847F7E708BD00BF06
:10B090003C2C0020442C002010B5044610B1012C9B
:10B0A0000CD010BD0B4B01225A700B48FFF7CFFF9D
:10B0B0000028F4D0436800209847F6E7054B0122AA
:10B0C0009A700648FFF7C3FF0028EAD043680120C2
:10B0D0009847F6E73C2C0020442C00204C2C002004
:10B0E00010B50D4B1B7813B18524204610BD0A4BBB
:10B0F00000229A605A601A61DA60084800F012F97A
:10B10000044604F033FC18B1034B01221A70ECE73B
:10B1100000F016F9F8E700BF3C2C002099B00100C0
:10B1200000B583B000238DF807300DF10700FFF75D
:10B13000C1F9084BDA68013ADA60DB6833B19DF88F
:10B140000700FFF7E3F903B05DF804FBFFF786FFA4
:10B15000F5E700BF3C2C002000B583B001280BD0E0
:10B1600043B223B103281FD003B05DF804FB114B99
:10B170000122C3F88020F7E700238DF807300DF196
:10B180000700FFF797F90C4B1B7853B10A4BDA68AD
:10B190000132DA6001229A709DF80700FFF7B6F9D4
:10B1A000E2E7FFF79DFFF1E700F0CAF8FFF7B8FF0D
:10B1B000DAE700BF00E100E03C2C0020044B1B78E4
:10B1C00023B9034B01221A70002070478520704775
:10B1D000502C00202DE9F041054602684FF0A043B5
:10B1E00002F5E07240F20C6143F82210426802F569
:10B1F000E07243F822100168012202FA01F1C3F85B
:10B20000081541688A40C3F80825026802F5E07213
:10B2100040F20D6143F82210426802F5E07243F8F3
:10B2200022101C4F47F001074FF48070B8470026EA
:10B23000082E1DDC6A684FF0A043D3F81035D340C8
:10B2400013F0010F13D12B68012404FA03F34FF01C
:10B25000A048C8F80C354FF48070B8472B689C4064
:10B26000C8F808454FF48070B8470136E0E776B17A
:10B270006B68012404FA03F34FF0A046C6F80C35BE
:10B280004FF48070B8476B689C40C6F80845BDE82D
:10B29000F08100BFD011020000B585B003788DF8B1
:10B2A000003003798DF8043043798DF805308368D8
:10B2B0008DF80630C3688DF807300369029343693F
:10B2C0000393054B53F82130044A52F82110684685
:10B2D000984705B05DF804FB5C2C0020542C00203E
:10B2E000F8B504460E46174605780B4A42F8257015
:10B2F0000A4A42F825304B7B3BB9201D4FB1084A22
:10B300002B46314600F03AF9F8BD0846FFF762FFD8
:10B31000F3E70022F4E700BF5C2C0020542C00204F
:10B3200099B20100054B1B7933B9044B1860012217
:10B330001A7100205871704785207047642C0020D6
:10B34000084B1B6813F0010F05D1064BC02283F890
:10B35000002301221A604FF080430122C3F8182510
:10B36000704700BF00E100E0054B01221A604FF07A
:10B370008043D3F8183413F4803FF8D1704700BFEE
:10B380000C00004000B583B0154B1B6893B1144B03
:10B3900000221A601B680093009B4FF0804301223B
:10B3A000C3F808230F4B5B7923B90E4B5A711B6806
:10B3B000002098470C4B1B6873B10B4B00221A609E
:10B3C0001B680193019B4FF080430222C3F80823BE
:10B3D000044B1B680120984703B05DF804FB00BFD5
:10B3E00000010040642C002004010040034610F0DE
:10B3F000020F04D1032013F0040F03D1704748F269
:10B400000120F8E748F20220F8E70000F0B58DB01F
:10B4100004460D46D0F8243153B10023C0F824313E
:10B42000D0F824310193019BD0F80431002B4ED089
:10B43000D4F80431002B5CD00023C4F80431D4F8D4
:10B4400004310293029B07AE05F10C070FCF0FC624
:10B450003B68336095F82E3053B12B7B012B42D0E3
:10B46000D4F84C250892022B40D0D4F84C350993DF
:10B470000023C4F86031D4F860210492049AC4F81F
:10B480005C31D4F85C310393039B95F8303013B1F1
:10B4900095F82E3033B10023C4F80032AB60314B45
:10B4A000C4F80833D4F8C434C4F8C43413F0020F19
:10B4B0004CD001238DF8183095F830300BB985F851
:10B4C0002F302B68696806A898470DB0F0BD8B68CF
:10B4D000C0F8083302238B608B68C0F80433012363
:10B4E00003624361F1E7D4F83C25BBE7D4F83C356F
:10B4F000BDE70023C4F84831D4F848310593059BD3
:10B500002B7B8BB907AE05F10C070FCF0FC63B683D
:10B51000336095F83030002BC4D1C4F80032AB60F2
:10B52000104BC4F80833BDE74FF40073C4F8003281
:10B5300040F20223AB6003F1CE73C4F80833AB686A
:10B54000C4F804330123A3602362BEE713F0040FA1
:10B5500003D002238DF81830AEE700238DF81830A1
:10B56000AAE700BF02029C0108B502490248FFF7A2
:10B570004DFF08BD6C2C0020003000402DE9F0414B
:10B580000679364C342505FB064595F82D50002DDF
:10B590005FD1984617460C4605463149006800F0D1
:10B5A00061FD0246002856D12C48342303FB06F3E4
:10B5B000C118C750C1F8048000238B6081F8303077
:10B5C00081F82F30637B81F8323023684FF0A0413F
:10B5D00003F5E07340F20C6041F82300636803F563
:10B5E000E07341F823002B6820686168C3F8080500
:10B5F000C3F80C15A168C3F82415CFB12968090B4D
:10B6000048B2237B00281DDB5B01DBB200F1604008
:10B6100000F5614080F800332B681B0B59B203F032
:10B620001F034909012000FA03F30E4840F82130B6
:10B630000A4B342101FB0633012183F82D101046FB
:10B64000BDE8F08101F00F015B01DBB20648435415
:10B65000E2E70822F3E71122F1E700BF6C2C00209B
:10B6600069B5010000E100E014ED00E00379026833
:10B670000621C2F80015044A342101FB03230222EB
:10B6800083F82D20704700BF6C2C00202DE9F0437B
:10B6900089B00379DFF87492342606FB03F609EBD0
:10B6A00006070468CB6803F06043B3F1005F40F025
:10B6B00021810D469046934BC4F8083397F82F30FC
:10B6C000002B39D112F0140F0CBF0123002387F88F
:10B6D0002F3007F10C0C8E46BEE80F00ACE80F00CF
:10B6E000DEF80030CCF80030C8F3001387F83030B3
:10B6F0006B78C4F888350023C4F80431D4F80421E9
:10B700000592059AC4F82431D4F824310693069B97
:10B7100018F0010F15D00123C4F8503518F0020FAE
:10B7200013D00123C4F840352B78032B00F2BE80E0
:10B73000DFE803F06DA84D0FBB68C4F80433112097
:10B74000D9E00023C4F85035E8E70023C4F84035B9
:10B75000EAE72B6903F06043B3F1005F40F0CE806D
:10B760004FF48073C4F80032EA686B68C4F844256B
:10B77000C4F848350023C4F85031D4F8502102925F
:10B78000029AC4F86031D4F860210392039AC4F895
:10B790004831D4F848310493049B01232362A36009
:10B7A000D4F85031002BFBD00020C4F85001D4F85D
:10B7B00050310193019B2A69AB68C4F84425C4F851
:10B7C0004835514BBB604FF4827208233BE0EA6876
:10B7D0006B68C4F84425C4F848352B6903F060420F
:10B7E000B2F1005F40F08C80AA68C4F83435C4F828
:10B7F00038254FF48453C4F8003240F20223BB6072
:10B80000012323624FF48272082300201BE0EA68C0
:10B810006B68C4F84425C4F8483518F0200F27D0C9
:10B820004FF48073C4F80032374BBB600023C4F878
:10B830004831D4F848310093009B4FF4A47201239F
:10B8400023620823002018F0080F04D12978032967
:10B8500001D00121E15059F8063063B318F0040F0C
:10B8600002D04FF40073BB60BB68C4F8043342E0FD
:10B870004FF40073C4F8003240F20223BB604FF46F
:10B880008272DCE7EA686B68C4F83425C4F838359E
:10B890004FF48053C4F8003240F20223BB6001230E
:10B8A00023624FF4827200231846CCE74FF4827271
:10B8B00008230720C7E7A35883B9D4F82431002B05
:10B8C000F9D00023C4F82431D4F824310793079B1E
:10B8D0000123236263614FF48272ECE7D4F8C4342D
:10B8E000C4F8C434002287F82F2023B11846FFF78C
:10B8F0007DFD00E0102009B0BDE8F0831020FAE7DC
:10B900001020F8E702029C01000204006C2C0020C9
:10B9100030B587B09DF82850002401940394059415
:10B920008DF80510029304922DB1202201A9FFF792
:10B93000ADFE07B030BD0022F8E730B587B0002477
:10B94000CDF80640CDF80A40CDF80E40CDF81240B3
:10B95000ADF8164001258DF804508DF805100293BE
:10B960000492224601A9FFF791FE07B030BD000006
:10B9700070B4154662B1002365B10824A34218D201
:10B980000E4A52F82320B2F1FF3F05D00133F5E70C
:10B990000823F1E70C24F1E75AB2084C261886F880
:10B9A000302044F8231035B9083B234483F8500075
:10B9B00001E04FF0FF32104670BC7047A02C002011
:10B9C000064B4FF0FF3243F82020072804D90838EF
:10B9D0001844FF2380F85030704700BFA02C00208F
:10B9E0001B4B93F858308BBB10B582B01F2B07D878
:10B9F000174A1A44FF2182F830100133DBB2F5E711
:10BA000000240B2C05D82046FFF7DAFF0134E4B2FE
:10BA1000F7E70F4C0422002104F1540004F062FC0B
:10BA20000C4BC02283F8062340221A600A4B0020E8
:10BA300018601B680193019B084B4FF00042C3F84C
:10BA40000423012384F8583002B010BD0820704749
:10BA5000A02C002000E100E07C610040006000407C
:10BA6000034B93F85800003018BF0120704700BF07
:10BA7000A02C0020F8B52D4B034493F93030B3F1DE
:10BA8000FF3F01D00820F8BD0D4604468B7803BB6C
:10BA9000264B0344FE2283F830206B78012B3DD0E7
:10BAA0000123A3404FF0A042C2F80C3504F5E07228
:10BAB0004FF0A043032143F8221024FA01F304F0CD
:10BAC00007041B4A0120A040D45C0443D454002046
:10BAD000D9E701220021FFF74BFFB0F1FF3F23D050
:10BAE00029786A78134E00F5A27056F8203023F4B6
:10BAF000981323F4F85346F8203056F820702302A8
:10BB000003F4F853090401F440310B43120502F425
:10BB1000801213433B4346F82030BEE7A3404FF06A
:10BB2000A042C2F80835C1E70420ACE7A02C0020F1
:10BB3000F42C00200060004038B50446164B034446
:10BB400093F93000C0B2072819D9134B1A19FF21F5
:10BB500082F83010E10804F00700012282405433DB
:10BB6000585C02420AD004F5E0744FF0A040022570
:10BB700040F82450585C20EA02025A5438BDFFF7BE
:10BB80001FFF054B234493F9303003F5A273034A9A
:10BB9000002142F82310D8E7A02C002000600040CC
:10BBA000064B184490F93030054903F5A27351F85B
:10BBB000232042F0030241F823207047A02C0020EC
:10BBC00000600040064B184490F93030054903F5F9
:10BBD000A27351F8232022F0030241F8232070477A
:10BBE000A02C002000600040064B184490F9300063
:10BBF0000C30C0B28000C0B200F1804000F5C040FF
:10BC0000704700BFA02C0020064B184490F930006C
:10BC10001830C0B28000C0B200F1804000F5C040D2
:10BC2000704700BFA02C0020003118BF0121084A36
:10BC3000104490F93020074802F5A27250F82230E3
:10BC400023F4801343EA015340F82230704700BFC9
:10BC5000A02C002000600040324B034493F93030A8
:10BC6000002B01DB0820704770B513460C460546D3
:10BC70008A78C2F340021946FFF77AFEB0F1FF3F1F
:10BC80004DD0A37813F0040F16D113F0010F31D06B
:10BC90004FF0A04205F5E07152F8213023F0020385
:10BCA00042F82130EB0805F007011F4E012202FA8D
:10BCB00001F1F25C0A43F254A37813F0020F22D090
:10BCC00023781A4900F5A27051F8202022F4473257
:10BCD00022F4407241F8202051F820202D0205F472
:10BCE000F8551B0403F440331D43154341F820501D
:10BCF000002070BD6278920005F5E0734FF0A0411E
:10BD000041F82320CEE708382278064B184490F8F3
:10BD1000503043EA821380F850300020E9E70420D5
:10BD2000E7E700BFA02C0020F42C002000600040BA
:10BD300070B483B02E4B034493F93030072B2DDDC4
:10BD4000A3F108022A4B134493F95030C3F3811333
:10BD5000032B15D0012B1DD003244FF0A04300F579
:10BD6000E07053F8201021F4403143F8201053F8CC
:10BD7000202042EA044243F8202003B070BC704700
:10BD80004FF0A043D3F81035C34013F0010F03D098
:10BD90000324E2E70224E0E70224DEE7DAB2072A1E
:10BDA000EBD803F1400292B2920092B2114D03F52A
:10BDB000A27655F8264044F0010445F8264002F1E9
:10BDC000804202F5C0420024146012680192019A78
:10BDD0000029D2D0064A104490F9301052F82120A0
:10BDE000002ACAD0012202FA03F3C5F80433C4E7DB
:10BDF000A02C0020006000404FF0A043D3F8103585
:10BE000023FA00F000F0010070470000F0B587B0A1
:10BE10000025059501204FF48073294603E040007A
:10BE200004339BB20131072912D803F1804202F595
:10BE3000C0421468012CF2D1754CD4F8044320425E
:10BE4000EDD00024146012680392039A0543E6E7DC
:10BE5000704B1B68012B06D015F0FF0F2FD1002D62
:10BE600030DB07B0F0BD6B4A002313601268049208
:10BE7000049A45F0004505AA06E04FF0A041D1F82C
:10BE8000101542F8041B0133002BF6D0E4E77600CE
:10BE90000134072CE3D82E42F9D05D4B04F5A27291
:10BEA00053F82200C0F3042053F82210C1F30141DB
:10BEB000594B53F82430002BE9D09847E7E7012687
:10BEC0000024E6E70023009313B100252C460BE085
:10BED00006AA02EB83024FF0FF3142F8141C013333
:10BEE000F2E7032921D00134032C5BD84A4B2344C9
:10BEF00093F95030D9B221F0C000B3F1FF3FF2D036
:10BF0000C20801F00703012606FA03F306AE164441
:10BF100016F8146C3342E6D089093F4E371897F96A
:10BF2000307056F82770002FDBD003291AD000F5A7
:10BF3000E0764FF0A04C5CF82660C6F301460DF1A8
:10BF4000180C624412F8042C134001D0022E03D0C6
:10BF5000002BC8D1032EC6D1032909D0002FC2D08F
:10BF6000B847C0E71DF802601E430DF80260DEE727
:10BF7000022E14D04FF0020C4FF0A04300F5E072F7
:10BF800053F8226026F4403643F8226053F82260CA
:10BF900046EA0C4643F822600135EDB2DEE74FF089
:10BFA000030CE9E7A5B9002D3FF45BAF8DE74FF037
:10BFB000A041D1F8101542F8041B0133002BF6D034
:10BFC000002343B10123002B7FF44BAF00231BE080
:10BFD000002302AAF2E706AA02EB830252F8101C21
:10BFE00052F8042C914201D10133EAE70023EAE739
:10BFF00006AA02EB830252F8101C42F8041C52F805
:10C00000181C42F8141C0133002BF1D0CBE700BF01
:10C01000006000407C610040A02C0020064B98424C
:10C0200005D0A3F50433984203D10448704704486F
:10C0300070470020704700BF00300240042D0020F0
:10C04000FC2C002008B5024B1B68984708BD00BFB8
:10C05000FC2C002008B5024B1B68984708BD00BFA8
:10C06000042D002070B582B00E46FFF7D7FF98B1BF
:10C07000044600238DF807300DF10700FEF71AFA89
:10C08000257915B92660012323719DF80700FEF775
:10C090003DFA25B9002000E0002002B070BD11205B
:10C0A000FBE7000010B588B0614B1B68002B2AD05D
:10C0B0005F4B00221A601B680093009B5D4B93F856
:10C0C0002E2012B193F82F30EBB100238DF81430ED
:10C0D000584B596806911989ADF81C10D968002988
:10C0E0005AD0544B188B5883596018810021D9605D
:10C0F00012B9514B01221A604E4C236805A898478B
:10C10000002384F82F304B4B93F82E3033B34B4B36
:10C110001B681BB3494B00221A601B680193019BEB
:10C12000444A538B92F82D108AB2934237D99B1A06
:10C130009BB24048438342680089C31A02EB430321
:10C140003D4AC2F82C36C2F83016394B00221A602C
:10C150001B680293029B3A4B01221A60394B1B6801
:10C160006BB1384B00221A601B680393039B314B61
:10C170001A7402228DF814201B6805A89847324BC8
:10C180001B683BB3304A0023136012680592059A7E
:10C19000284A137408B010BD00221A74ACE7934209
:10C1A00008D09342D1D1234B012283F82F200022C3
:10C1B0005A83CAE71F48C0680028F2D01D4B0122ED
:10C1C00083F82F2000225A831B4BC3F82C06C3F898
:10C1D0003016BAE7174B5C69002CDBD0B4FA84F355
:10C1E0004FF00042DA4024EA020446339B0003F198
:10C1F000804202F5E04211680029EDD00021116073
:10C2000012680492049A01228DF81420A3F58C730D
:10C21000C3F3C7028DF8182013F0040F0CBF0123DD
:10C220000B468DF81930034B1B6805A89847D3E7D8
:10C23000047100400C2D002000700040007100408F
:10C24000047000401071004014710040254B93F8B9
:10C250002C30002B43D110B485B0224B19600278EA
:10C260002149C1F8F0254278C1F8F425C27883F855
:10C270002E20012283F82C2000221A7483F82D200E
:10C280005A6183F82F206FF00044C1F80843174C1F
:10C29000226024680394039C154C22602468029455
:10C2A000029C144C226022680192019A8278520109
:10C2B000D2B2114880F80723802202600222C1F81E
:10C2C000042393F82E3013B10122C1F80423064B46
:10C2D0000122C3F80025002005B010BC70470820DB
:10C2E000704700BF0C2D002000700040047100401A
:10C2F000007100401471004000E100E02E4B1B7CF7
:10C30000002B56D130B40B79012B47D900F10C0327
:10C31000294A02EB43031B7923B992F82D300133EC
:10C3200082F82D30CA7900F10C04234B03EB44034F
:10C330001A710A7A5A710B7803F003034A781201D2
:10C3400002F0300213438A78120202F4E0621343CF
:10C35000CA78120302F4805213430A79120402F4D9
:10C36000E02213434A79120502F4801213438A79BA
:10C37000120602F080721343104A02EB0014C4F854
:10C380001835CB790D7A51300001141865601350BF
:10C390000B79012B07D9002030BC7047074B0022D6
:10C3A000C3F80025B2E713460122C3F80025002098
:10C3B000F2E71120704700BF0C2D002000700040F4
:10C3C000304B1222C3F808232F4B1B7CDBB2022B0D
:10C3D00020D082B02C4B1B7CDBB2012B1FD0294B11
:10C3E0000222C3F80423284B01221A7458601981D1
:10C3F0000022DA6093F82E30002B34D0224B598380
:10C4000093F82D201F4BC3F82C06C3F830260020CC
:10C4100002B070471B4BC3F80423112070471A4B1E
:10C42000DB682BB1174B0222C3F804231120EFE77E
:10C43000154BD860198393F82E3073B9134B1B68D2
:10C44000002BFBD0114B00221A601B680093009B4D
:10C450000C4BC3F82C06C3F830160A4B0222C3F863
:10C4600004230020D4E7074BC3F82C06C3F830168A
:10C47000064A0020106012680192019A01221A6097
:10C48000C6E700BF007000400C2D00200071004086
:10C490000A4B1B7CDBB2012B01D008207047074BF5
:10C4A00093F82E3023B1064B01221A60002070470A
:10C4B000044B01221A600020704700BF0C2D0020A1
:10C4C00000700040047000400B4B1B7C93B982B09D
:10C4D000094B02221A74094B002018601B68019353
:10C4E000019B074B1022C3F804230C3301221A606E
:10C4F00002B07047112070470C2D002010710040D1
:10C500000070004030B48CB244EA0244030103F1ED
:10C51000804303F5E043C3F81C4540008024844079
:10C5200011F5006F1ED0411C4FF0004323FA01F1BA
:10C530001A4D6B690B436B61194BC3F804434023DD
:10C54000834040F2FF718A421AD04FF0004222FA33
:10C5500000F012494A6902434A61114AC2F80433A1
:10C5600030BC7047411C4FF0004323FA01F10B4DE2
:10C570006B6923EA01036B61094BC3F80843DEE7EB
:10C580004FF0004222FA00F004494A6922EA000210
:10C590004A61034AC2F80833E2E700BF0C2D0020CD
:10C5A00000700040134B1B7C13BB10B500F10C0353
:10C5B000104A02EB43031B7923B192F82D30013B63
:10C5C00082F82D3000F10C020A4B03EB42030024E9
:10C5D0001C715C71084A00F151031B01D1184C60B9
:10C5E000D45040F2FF720549FFF78CFF204610BD82
:10C5F000112070470C2D00200070004000F8FFFF54
:10C600002DE9F04182B08046134E0025042708E052
:10C610009DF80700FDF77AFFD7B126EA0406013539
:10C62000EDB2AEB100238DF807300DF10700FDF734
:10C6300041FF0124AC402642EAD0084B1B681C4253
:10C64000E6D12343054A136088F800500027DFE74E
:10C65000384602B0BDE8F081FFFF01003C2D00200C
:10C6600030B583B001248440C4F3100313B907200C
:10C6700003B030BD0A4BC3F8084500258DF80750BC
:10C680000DF10700FDF716FF064A136823EA0404BC
:10C6900014609DF80700FDF739FF2846E8E700BF62
:10C6A00000F001403C2D0020A9B110B40C46A2B10D
:10C6B00001238340C3F3100189B10B4909680B4280
:10C6C0000FD00A4BA23043F8304003EBC000426069
:10C6D000002010BC70470E2070470E20F9E707209D
:10C6E000F7E70820F5E700BF3C2D002000F00140EF
:10C6F000012303FA00F0430C5B045BB9C0F31003A1
:10C700001BB1064B1B68184206D0054BC3F8040545
:10C710000020704707207047082070473C2D0020FC
:10C7200000F00140012303FA00F0430C5B045BB905
:10C73000C0F310031BB1064B1B68184206D0054B13
:10C74000C3F808050020704707207047082070478D
:10C750003C2D002000F00140F0B583B005460F46A7
:10C760001646002401E00134E4B2B44216D204F1CA
:10C770005000800080B24FF48033A3402A58002A32
:10C78000F1D0D5F804231342EDD000232B502B58C1
:10C790000193019B3B6879689847E4E703B0F0BDDB
:10C7A00070B483B0067906EB46039C00344B2344F7
:10C7B0001B7A002B61D1324D2B192A514A685A60DD
:10C7C0000022437993420CD9046802F150039B0084
:10C7D0009BB20025E550E3580193019B0132D2B290
:10C7E000EFE70268120B54B2CB78002C3EDB5B0102
:10C7F000DBB204F1604404F5614484F8003303685B
:10C800001B0B5CB203F01F036409012202FA03F35D
:10C810001C4D45F8243005684C78D5F8043523F0D4
:10C82000030304F003042343C5F8043505688C783A
:10C83000D5F8083523F0030304F003042343C5F8B7
:10C84000083500680978D0F8103523F00F0301F09F
:10C850000F010B43C0F8103506EB4606B100084B3C
:10C860000B441A72002003B070BC704702F00F0234
:10C870005B01DBB2044CA354C1E70820F3E700BF1F
:10C88000402D002000E100E014ED00E003680122EB
:10C890001A60037903EB43039A00024B134402220C
:10C8A0001A727047402D0020036801221A61037933
:10C8B00003EB43039900024B0B441A72704700BF0D
:10C8C000402D002038B5044603681B0B5AB203F014
:10C8D0001F035209012101FA03F320320B4941F8E9
:10C8E00022300368D3F800220025C3F80052036801
:10C8F0004FF0FF32C3F80823FFF7D6FF237903EB8D
:10C9000043039A00024B13441D7238BD00E100E05E
:10C91000402D002003680122DA60704770B483B0B4
:10C920004FF480348C409BB1056801F150039B00AB
:10C930000026EE50EB580193019B0368C3F80443B3
:10C94000036801F5A87143F8212003B070BC70475B
:10C950000368C3F80843F3E7F8B507684FF4807439
:10C960008C4001258D402C43D7F8005225EA040461
:10C97000C7F800420568D5F800422343C5F80032E5
:10C980009DF81830FFF7CAFFF8BD10B483B00268F5
:10C9900001F150039B009BB20024D450D358019363
:10C9A000019B02684FF480338B40C2F8043303B01C
:10C9B00010BC704702684FF4803303FA01F1C2F8EB
:10C9C0000813704708B5042202490348FFF7C4FE64
:10C9D00008BD00BF402D00200090004000F18043C2
:10C9E00003F598331A688AB1094AD2F80423114230
:10C9F0000CD000B583B000221A601B680193019B24
:10CA0000044B1B68984703B05DF804FB704700BFF8
:10CA1000003001404C2D002008B501214FF48070FA
:10CA2000FFF7DCFF02214FF48270FFF7D7FF0421EC
:10CA30004FF48470FFF7D2FF08214FF48670FFF7A0
:10CA4000CDFF08BD3F4B1B78002B75D110B586B0CC
:10CA500004463D4B19603D493D48FFF703FB014645
:10CA600000286CD13B4B01221A60394A0223C2F8DC
:10CA70000035394800230360006805900598374861
:10CA800003600068049004983548036000680390D0
:10CA900003983448036003680293029B2378C2F82A
:10CAA00008352378072B42D0B4F80330ADF80430B2
:10CAB0009DF8042002F03F029DF805301B0203F4AC
:10CAC0007C531A43224BC3F83025A078D3F8342581
:10CAD00042EA0022C3F834256079D3F834250243B2
:10CAE000C3F83425A27902F00102C3F83825E279AF
:10CAF00002F00302C3F83C25D3F8002222F01C0206
:10CB0000C3F800220F22C3F80823227AC3F80425B1
:10CB1000637A5B01DBB2144A82F813334FF40023CB
:10CB20001360084B01221A70084606B010BD6278E7
:10CB3000074BC3F80C25B7E70821084670471121B9
:10CB4000F2E700BF502D00204C2D002019CA010033
:10CB50000030014004300140003101400431014007
:10CB6000083101400C31014000E100E0064BC3F800
:10CB70000403D3F800221143C3F8001201221A6003
:10CB8000024B02221A70704700300140502D0020E5
:10CB9000032825D8012A07D001290DD04BB2C3B1F3
:10CBA00002290FD007207047012901D00022F3E7A6
:10CBB00000F10E02D2B2EFE700EB4000094B1A542D
:10CBC0000020704700EB4000064B184442700020E4
:10CBD000704700EB4000034B184482700020704700
:10CBE00007207047542D002008B501220021084677
:10CBF000FFF7CEFF10B10346072812D1072202210A
:10CC00000120FFF7C5FF034608B1072809D1042218
:10CC100002210020FFF7BCFF034610B1072800D116
:10CC20000023184608BD08B5012202210020FFF7A5
:10CC3000AFFF10B10346072812D1072202210120BD
:10CC4000FFF7A6FF034608B1072809D10A220021F1
:10CC50000846FFF79DFF034610B1072800D10023C7
:10CC6000184608BD08B50388102B02D0112B12D02E
:10CC700008BD114B1B6823B10F4A136801331360C1
:10CC8000F6E7FFF7B1FF0028F6D00C4B1B68002B2E
:10CC9000F2D09847F0E7084A1368013B1360002B75
:10CCA000E6D1FFF7C0FF0028E2D0044B1B68002B41
:10CCB000DED09847DCE700BF642D0020602D002007
:10CCC00033DF704776DF70477ADF70477CDF70476D
:10CCD0007FDF70478FDF7047B1DF70474FF0A042B2
:10CCE000D2F80435D94301F48011C2F8081503F4D1
:10CCF0008013C2F80C35704781B1012916D04FF06E
:10CD0000A041D1F80435012202FA00F020EA030222
:10CD1000C1F808250340C1F80C357047012303FA18
:10CD200000F04FF0A043C3F80C057047012303FA4D
:10CD300000F04FF0A043C3F80805704700F5E0701D
:10CD40004FF0A04340F2032243F820207047704781
:10CD500010B504464A88124B1B889A420CD01148E1
:10CD6000114BC01AC0080004238862880F4940F0A4
:10CD70000400FCF7B7FE10BD0A8840F677239A42FC
:10CD8000EDD18A88033A92B20648074BC01AC00810
:10CD900000041346064940F00300FCF7A3FEDEE75B
:10CDA00004250020F80B0200B80B020088130200D3
:10CDB0006C13020008B5FCF7DDFF08BD08B5FFF7EE
:10CDC0007FFF42F20603984200D000B908BDFCF78D
:10CDD000D1FFFBE708B5FCF7CDFF08BD08B5037828
:10CDE00003B108BD3B21044B1888FFF76BFF0028F7
:10CDF000F7D0FCF7BFFFF4E70425002010B502468A
:10CE0000B0F5847F0CD0B0F5827F12D0B0F5867F6C
:10CE100011D0B0F5807F01D0084B02E0084B00E054
:10CE2000084B094801684C1C0460084800F0FAFEF1
:10CE300010BD074BF5E7074BF3E700BF1C130200DB
:10CE40003813020024130200882E00204013020031
:10CE500028130200301302000FB410B582B004ABE7
:10CE600053F8042B01930E4C1F21204603F003FAC4
:10CE70000023E377204603F08AFAADF80200094B5D
:10CE80001B880DF102022146074802F09DFC214655
:10CE9000064800F0C7FE02B0BDE8104004B070477D
:10CEA0008C2E0020042500200825002020150200DB
:10CEB00008B5182802D0192807D008BDFEF79CFF36
:10CEC00001460548FFF7C8FFF7E7FEF795FF014663
:10CED0000248FFF7C1FFF0E710140200241402001B
:10CEE00008B54FF0A043D3F81015C14001F001017F
:10CEF0000148FFF7B1FF08BDCC14020000B585B0B2
:10CF000000238DF804308DF805308DF806308DF84B
:10CF1000073002228DF808208DF809308DF80A308C
:10CF20008DF80B008DF80C3001A91846FFF7E6F9D3
:10CF300068B901210A48FFF743FA58B9FFF7A8FA80
:10CF400058B9084B01221A7005B05DF804FBFCF7D4
:10CF500011FFEEE7FCF70EFFF0E7FCF70BFFF0E741
:10CF6000682D0020CC2E002008B550B10748FDF7F1
:10CF7000DFFF322200210548FDF7ECFE1128F8D032
:10CF800002E00248FEF716F808BD00BF4412020096
:10CF900070B584B000248DF80E40184B1B88ADF896
:10CFA0000C3001E00134E4B2012C22D804AB23445C
:10CFB00013F8045C29461248FFF74EFF0123009343
:10CFC0000DF10E0229460F48FEF7A2FC0028E9D118
:10CFD0000D48FFF741FF01230DF10F0229460948D3
:10CFE000FEF7ABFC0028DDD129460848FFF734FFE7
:10CFF00002E00748FFF730FF04B070BD10120200D6
:10D00000C41302004C140200E0130200EC130200EF
:10D010000414020030B583B00190274800F002FEEE
:10D020009DF80430042B11D8DFE803F0033B1223F2
:10D0300035009DF805409DF806502A4621461F48B8
:10D04000FFF70AFF29462046FFF756FE03B030BD22
:10D050001B4B1B781BB11B48FFF7FEFEF6E79DF844
:10D06000054021461848FFF7F7FE2046FFF746FF28
:10D07000ECE7164A1378B3FA83F35B09137043B1F4
:10D0800013491448FFF7E8FE104B1878FFF76CFFC0
:10D09000DCE71149F5E71148FFF7DEFEFFF778FFFF
:10D0A000D4E79DF8054021460D48FFF7D5FE204600
:10D0B000FFF716FFCAE700BF8412020098120200B1
:10D0C000CC2E0020B0120200CC120200CD2E002087
:10D0D00080120200E01202007C120200F412020030
:10D0E0000813020008B54FF400410020FCF7E4F9F2
:10D0F00010B9FCF765F908BDFCF73CFEF9E7000044
:10D1000008B5FDF75DF930B9064A01210648FDF77B
:10D1100087F918B908BDFCF72DFEF5E7FCF72AFEE4
:10D12000F8E700BFDDCC01004414020008B5FDF7AC
:10D1300087FB00B908BDFCF71DFEFBE700B583B017
:10D1400002F0D0FB68B90023019301A9012002F08D
:10D1500071FC48B901A802F043FD40B903B05DF885
:10D1600004FBFCF707FEEEE7FCF704FEF2E7FCF732
:10D1700001FEF3E708B538B100224FF480410948B9
:10D18000FDF764F950B908BD0648FDF77DF94FF089
:10D19000A0434FF48012C3F80C25F3E7FCF7EAFD37
:10D1A000F1E700BF682E002010B582B00446038866
:10D1B000103B462B4DD8DFE803F0243B4C664C4C2B
:10D1C0004C4C4C4C4C4C4C4C4C4C4C4E4C4C4C4C9D
:10D1D0004C4C4C4C4C4C4C4C4C4C4C4C4C4C4C4C8F
:10D1E0004C4C4C4C4C7E4C4C4C4C4C4C4C4C4C4C4D
:10D1F0004C4C4C4C4C4C4C4C4C4C4C4C724C4C4C49
:10D2000087000020FFF7B6FF3448354BC01AC0082E
:10D210000004344940F00300FCF7B2FAA188324B15
:10D220001980324802F058F998B1FCF7A3FD10E0DC
:10D230000120FFF79FFF2948294BC01AC0080004AE
:10D240002B4940F00300FCF79BFA274B4FF6FF7287
:10D250001A8002B010BD2148214BC01AC00800043A
:10D26000244940F00400FCF78BFA00238DF80430C9
:10D270008DF8053001A9A088FFF72CFD0028E8D023
:10D28000FCF778FDE5E700231A468521164800885B
:10D29000FFF71EFD0028DCD0FCF76CFDD9E700236A
:10D2A0001A46194610480088FFF716FD0028D0D00E
:10D2B000FCF760FDCDE713218088FFF703FD002810
:10D2C000C7D0FCF757FDC4E713218088FFF7FAFCAD
:10D2D0000028BED0FCF74EFDBBE700BFF80B0200F4
:10D2E000B80B02004C120200042500205C2E002026
:10D2F000581202006812020008B528B1032802D1B2
:10D300000120FFF737FF08BDFFF758FDFBE70000DE
:10D3100010B584B09DF80430012262F3030362F378
:10D3200007138DF80430144C204603F030F882B215
:10D33000214601A8FFF7CAFCC0B9082200210DEB65
:10D34000020002F0CFFF1023ADF808303C23ADF807
:10D350000A300023ADF80C304FF4C873ADF80E302E
:10D3600002A8FFF7B1FC20B904B010BDFCF702FD24
:10D37000E3E7FCF7FFFCF7E76013020000B583B0BA
:10D380000E4B009369460E4802F092F878B90422D9
:10D3900000210DEB020002F0A5FF0A4B019301A949
:10D3A000094802F097F928B903B05DF804FBFCF7CF
:10D3B000E1FCECE7FCF7DEFCF6E700BFB5CD0100D1
:10D3C0005C2E0020CDD301000825002038B503785D
:10D3D00003B138BD04460A4D0A4BED1AED082D0481
:10D3E00045F0040508492846FCF7CAF9A28A2169D4
:10D3F0002846FCF73DFAA18A206900F0F3FAE8E735
:10D40000F80B0200B80B02009814020000B5ADB092
:10D41000AC22002101A802F065FF02238DF8043040
:10D4200000238DF8063005238DF807300123ADF871
:10D4300050300D4A15928DF880304023239344F2EA
:10D4400050632493094B2A9301A9094801F030F84D
:10D4500030B90121064801F028F82DB05DF804FB31
:10D46000FCF788FCF5E700BF00250020F9D2010099
:10D470006C2D002000B589B01C22002101A802F00B
:10D4800031FF002301934FF4203202924FF47022B7
:10D49000039203228DF81020ADF812308DF814306D
:10D4A000064B0693064B079301A801F0CDFA10B97D
:10D4B00009B05DF804FBFCF75DFCF9E7DDCD010088
:10D4C000D5CD010030B589B0FEF78AFAE0B94FF04A
:10D4D000A0430322C3F84427C3F84827C3F84C27C6
:10D4E00001AC1D4D0FCD0FC495E8070084E807007F
:10D4F0000024062C0BD808AB03EB840353F81C0C58
:10D50000FFF71CFC0134F4E7FCF734FCDFE70023F1
:10D51000ADF800308DF8023003238DF800300F4A4B
:10D5200069461820FEF798FB78B901211820FEF70C
:10D53000FFFB0A4A69461920FEF78EFB40B901211C
:10D540001920FEF7F5FB09B030BDFCF713FCECE742
:10D55000FCF710FCF3E700BF14120200B1CE01008B
:10D5600008B5037813B1022B1AD008BD4368B3F98C
:10D5700000104FF4167303FB01F3002B0DDB9B121D
:10D5800003EB43035A000A48FFF766FC0020FFF74D
:10D5900009F8084B00221A70E7E703F2FF33EEE7C1
:10D5A0000548FFF759FC034B00221A70DDE700BF66
:10D5B000E4140200CC2E00200415020008B5054931
:10D5C0000548FEF743FE10B9FEF77EFF08BDFCF7E5
:10D5D000D1FBF9E761D501005C13020030B587B0DB
:10D5E00001AC094D0FCD0FC42B68236001238DF8CA
:10D5F0000C30064A01A90648FDF7C0FB08B907B080
:10D6000030BDFCF7B7FBFAE7301202004FCD010046
:10D610004412020000B585B0002203920F2300934C
:10D620000E2301934FF0CC73029302238DF80C303C
:10D630004FF0A0430C21C3F83C17C3F8381713462A
:10D6400069460648FDF74CFE28B90548FEF70EF876
:10D6500005B05DF804FBFCF78DFBF6E7481402000B
:10D660004C14020000B585B00023019302930723F8
:10D670008DF8043001238DF806308DF80A308DF8CE
:10D680000C3006238DF80D30074901A8FFF7DAF9B1
:10D6900030B900210620FFF769FA05B05DF804FBF8
:10D6A000FCF768FBF5E700BFFDCD010008B50321DD
:10D6B000034800F07FFF00B908BDFCF75BFBFBE708
:10D6C0006C2D002008B5FBF71FFF00B108BDFDF76A
:10D6D000CDF8FBE708B50849084801F00DFE28B968
:10D6E000F721064801F020FE18B908BDFCF742FBFF
:10D6F000F6E7FCF73FFBF8E751CD0100242E0020B0
:10D7000008B5FFF7EFFCFFF7FBFCFFF70FFDFFF796
:10D7100015FDFFF7FDFDFFF7DDFFFFF72FFEFFF71C
:10D7200075FEFFF7A7FEFFF7CDFEFFF747FFFFF7F8
:10D7300055FFFFF76FFFFFF795FF0A4800F04CF920
:10D74000094800F06FFA0948094BC01AC0080004E4
:10D75000084940F00300FCF713F8FFF7A7FFFFF7B5
:10D76000B1FFFCE715D0010058140200F80B0200CD
:10D77000B80B02006C1402003038C0B2022800D886
:10D7800070470220FCE7000010B582B00446042276
:10D79000854902F041FD80B96079FFF7EDFF002374
:10D7A0008DF8043011238DF805308DF806007F4B7D
:10D7B0001B680198984702B010BD03227C4920469F
:10D7C00002F02AFD002837D1A079FFF7D5FF237991
:10D7D000722B18D0672B23D0622B23D06E2B23D033
:10D7E000732B23D0652B23D0772B23D00023ADF8C8
:10D7F00004308DF8063005238DF804306B4B1B6820
:10D8000001989847D7E7162200238DF804308DF849
:10D8100005208DF80600654B1B6801989847CAE7FC
:10D820001422F1E71722EFE70622EDE70722EBE7E4
:10D830000822E9E70922E7E704225E49204602F0D0
:10D84000EBFC68B900238DF8063002238DF8043014
:10D8500007238DF80530554B1B6801989847AAE7B8
:10D8600005225549204602F0D7FC68B900238DF8FF
:10D87000063002238DF8043006238DF805304B4B1B
:10D880001B680198984796E705224C49204602F00C
:10D89000C3FC78B9A079FFF76FFF00238DF804303F
:10D8A00012238DF805308DF80600404B1B68019857
:10D8B000984780E703224249204602F0ADFC78B940
:10D8C0002079FFF759FF00238DF8043013238DF8DA
:10D8D00005308DF80600354B1B68019898476AE7BC
:10D8E00004223849204602F097FC60B90023ADF8C5
:10D8F00004308DF8063003238DF804302B4B1B6861
:10D900000198984757E704222F49204602F084FCEB
:10D9100068B900238DF8063002238DF80430052302
:10D920008DF80530214B1B680198984743E7032287
:10D930002649204602F070FC60B90023ADF804309F
:10D940008DF8063004238DF80430184B1B680198BD
:10D95000984730E703221E49204602F05DFC68B973
:10D9600000238DF8063001238DF8043018238DF83C
:10D9700005300E4B1B68019898471CE70522154996
:10D98000204602F049FC00287FF415AF00238DF8F3
:10D99000063001238DF8043019238DF80530034B30
:10D9A0001B680198984706E724150200DC2E00202A
:10D9B0002C15020030150200381502004015020037
:10D9C000481502004C150200541502005C150200B7
:10D9D0006015020064150200014B1860704700BF1B
:10D9E000DC2E00202DE9F04107460E46002405E01C
:10D9F000154B1B78012B14D80134A4B2B44221D2A8
:10DA00003B5D0A2BF4D00D2BF2D03B2BF0D00E4A0D
:10DA10001278092AECD8501C0B4908700B498B541A
:10DA2000EAE74FF00008084B83F80080074D85F8BF
:10DA300009802846FFF7A8FE0A224146284602F040
:10DA400051FCD9E7BDE8F081DA2E0020D02E00206D
:10DA50000369C268934204D88068801A0344581E40
:10DA600070479B1A581E70472DE9F84305468846B3
:10DA70001646C468D0F80890A9EB0407974207D966
:10DA80004068204402F005FC3444EC60BDE8F883B3
:10DA900040683A46204402F0FCFBA4EB09043444FD
:10DAA000224608EB0701686802F0F3FBEC60EDE743
:10DAB0002DE9F843064688461746C5684FF0000929
:10DAC0001AE0B268641B1444621EB3685C1B944283
:10DAD00028BF1446BC4228BF3C46706822464146D7
:10DAE000284402F0D6FBA144A0443F1B2544B36860
:10DAF000AB4207D0F5603FB13469A542E1D2641B67
:10DB0000621EE2E70025F5E74846BDE8F88300001D
:10DB100010B5114C022323616361104AA261104BBE
:10DB2000E3614FF4007323620023A3626362E36244
:10DB3000A2640C4AE26410222265A3656365E36572
:10DB40000949E01D02F001FC0849204602F0FDFBF6
:10DB50002023A37110BD00BFE02E00206C15020031
:10DB6000682F0020582F0020781502007C15020035
:10DB7000F8B50F461646194A431C03EB4303DD0074
:10DB8000154400EB4000C3001A44D46A012C11D0A4
:10DB900024B1022C1BD000242046F8BD2846FFF7F4
:10DBA00057FFB042F8D3324639462846FFF75CFFAC
:10DBB0003446F1E72846FFF74BFF3446864228BF3C
:10DBC0000446224639462846FFF74EFFE4E7324630
:10DBD0002846FFF76DFF0446DEE700BFE02E002079
:10DBE00070B582B004460D4616460D4B1B789BB1AE
:10DBF00000238DF807300DF10700FCF75BFC32467F
:10DC000029462046FFF7B4FF04469DF80700FCF7BD
:10DC10007DFC204602B070BDFFF77AFFE8E700BF49
:10DC2000E02E00200FB410B5A2B024AB53F8042BA3
:10DC30000193802102A802F01EFB0446802807DC25
:10DC400000280BDC204622B0BDE8104004B070472D
:10DC5000802202A90020FFF7C3FFF3E7024602A9D2
:10DC60000020FFF7BDFFEDE76DDF704779DF7047FC
:10DC70007DDF704764DF7047F0B583B00488012C06
:10DC80004ED01488A51C9D424CD80578012D04D196
:10DC9000457825440235AB4246D315460E46074625
:10DCA0001B1B9CB2023CA4B2ADF8064010880230A7
:10DCB0000DF106013044FFF7DBFF034620BB3B7844
:10DCC000022B04D07978BDF80620914203D3BDF829
:10DCD0000620A24222D9012B19D0ADF80640082215
:10DCE000BDF80630FE2B21D82988013373542B88C8
:10DCF00001339BB22B80F2542B880133BDF80620F0
:10DD000012FA83F32B800023184603B0F0BD7B7812
:10DD1000A342E2D8ADF806300822E1E70922DFE7A6
:10DD20000723F1E70C23EFE70C23EDE70C23EBE7E8
:10DD30000B880433934223D830B583B00C46054694
:10DD40000DF10600FFF792FF0346B0B923880322C6
:10DD5000EA54238801339BB223801922EA54238892
:10DD600001339BB22380BDF80620E918EA54120A59
:10DD70004A702388023323800023184603B030BD45
:10DD80000C231846704730B41488E51C9D4212D805
:10DD900002230B55138801339BB213800124CC540A
:10DDA000138823449BB21380C854138823441380E0
:10DDB000002030BC70470C20FBE730B41488E51C11
:10DDC0009D4212D802230B55138801339BB2138056
:10DDD0000A24CC54138801339BB21380C85413888F
:10DDE00001331380002030BC70470C20FBE72DE985
:10DDF000F04F85B005468B46174699460E9EBDF8F6
:10DE00003CA0338801934FF00008444611E0022102
:10DE100026E032884A440DF10B0103A8FFF72AFFE0
:10DE20000346002841D19DF80B30328813443380DB
:10DE300001342B88A34228DD6B6853F8240003903B
:10DE400000220DF10B0103A8FFF714FF034660BB8E
:10DE50009DF80B30BB42EBD1B8F1000FD7D00021B9
:10DE6000328813440B4453450DDCB8F1000FD0D178
:10DE7000013292B2328009F802B033880133338024
:10DE80004FF00108C5E70C230FE0B8F1000F0BD0ED
:10DE90003388019A9B1A9BB2013B9BB2FF2B08D897
:10DEA00009F80230002300E00023184605B0BDE861
:10DEB000F08F0C23F9E72DE9F04182B006461746B2
:10DEC0009846089CBDF82450019500940222FFF763
:10DED0008EFF034618B1184602B0BDE8F0810195E7
:10DEE00000944346102239463046FFF780FF034630
:10DEF0000028F0D10023EEE70388052B1AD9A3F6FA
:10DF0000814292B24FF27D318A4215D94288052A68
:10DF100014D9A2F6814189B24FF27D3081420FD9E6
:10DF20004FF6FF718B420DD08A420DD093420DD82F
:10DF30000020704707207047072070470720704770
:10DF40000720704700207047002070470720704767
:10DF5000F8B51788BC1D9C4226D814460D460646C7
:10DF6000FFF7CAFF0346E8B90523EB5523880133C1
:10DF70009BB223801222EA54238801339BB2238070
:10DF80003288E918EA54120A4A70238802339BB295
:10DF900023807288E918EA54120A4A7023880233EF
:10DFA000238000231846F8BD0C23FBE70B880933B8
:10DFB000934231D830B583B00C4605466846FFF72A
:10DFC00053FE034610B1184603B030BD2388082223
:10DFD000EA54238801339BB223801B22EA54208811
:10DFE000013080B2208006220DF10101284402F0A8
:10DFF00050F9238806339BB223809DF8002012F04D
:10E00000FE0F06D10022EA54238801332380002327
:10E01000D9E70122EA54F7E70C2318467047F8B510
:10E02000848802341688351902359D422BD8FE2C7F
:10E030002BD801348C55138801339BB21380FF24F5
:10E04000CC54138801339BB213800488CD18CC5470
:10E05000240A6C7015880235ADB215808688B6B179
:10E06000D0F808C0BCF1000F13D017460B46044689
:10E0700032466146581902F00CF9A3883A881344D5
:10E080003B80002004E00C2002E00C2000E0002097
:10E09000F8BD0720FCE7836A002B3CD02DE9F04156
:10E0A00014460E468046002501E00135EDB298F891
:10E0B0002C30AB422CD9D8F8281005EB45039A0038
:10E0C0008F18BB880233FE2B27D8208801333354A6
:10E0D000238801339BB223801620F0542388013318
:10E0E0009BB223808A5AF118F254120A4A7020888F
:10E0F000023080B22080BA88002AD6D0B96871B1C7
:10E10000304402F0C6F8BB88228813442380CCE751
:10E110000020BDE8F081072070470C20F9E70720B8
:10E12000F7E7F0B583B004460E461546178800237E
:10E13000138090F82D30002B36D10023A278002ACE
:10E140003BD1E078002841D1606840B13B462A4687
:10E15000314690F90000FFF730FE034608BB2289E4
:10E16000002A3DD1228A002A47D1228B002A51D190
:10E17000206A30B13B462A463146FFF7E9FE0346A6
:10E1800078B9606A30B13B462A463146FFF747FF0F
:10E19000034630B994F82C20002A48D12278002A6E
:10E1A0004FD1184603B0F0BD3A4629463046FFF736
:10E1B000FDFE03460028C1D0F3E73A462946304623
:10E1C000FFF7B6FD03460028BBD0EAE73B462A46E8
:10E1D000314640B2FFF7D7FD03460028B4D0E0E750
:10E1E0000197009533460622022104F10800FFF74B
:10E1F00062FE03460028B5D0D3E701970095334669
:10E200000722032104F11000FFF755FE0346002802
:10E21000ABD0C6E70197009533461522142104F1CF
:10E220001800FFF748FE03460028A1D0B9E73B4697
:10E230002A4631462046FFF72EFF03460028ADD080
:10E24000AFE73B462A4631462046FFF715FD034619
:10E25000A7E7D8B130B40546D2B1002406E08C421D
:10E260000BD2285D204480B2013084B21088A042D5
:10E27000F5D8281940789842F1D18C420AD2A31CD3
:10E280001380285D013880B230BC70470020704791
:10E290000020F9E70020F7E710B582B0044600231C
:10E2A000ADF8063013460DF10602FFF7D2FF20B19C
:10E2B000BDF80600204402B010BD0020FBE772DF6D
:10E2C000704773DF704790F8B40070470023052B48
:10E2D00003D8C25C1AB90133F9E700207047012066
:10E2E00070470000431C044880FB0320401000EBF3
:10E2F0008000181AC0B2704767666666CB7B012B38
:10E3000000D070478B88A0F8A830FAE738B50446EB
:10E310000D46AB30FFF7DAFF6B1E032B12D8DFE898
:10E3200003F002080B0DA3791BB194F8243003B954
:10E3300050B9E37903B148B9237A4BB9637A4BB941
:10E34000002038BD0020FCE72846FAE70220F8E765
:10E350000320F6E70420F4E70346012280F8312089
:10E360000020C3F8A400AA334B60886002230B701E
:10E3700080238B8170470346022280F831200322DC
:10E380000A7002698A810020C3F8A40003F1AA027E
:10E390004A60DB688B60704708B543793BB190F801
:10E3A000B23033B9FFF78FFF28B1012000E0002021
:10E3B00008BD0020FCE70020FAE7837813B190F84D
:10E3C00020304BB9836A042B08D0436A042B01D058
:10E3D00001207047002070470020704700207047E0
:10E3E0000368013B012B01D90020704701207047D1
:10E3F00038B504460D460122B0F89810D0F89400C4
:10E40000FFF74AFF00B1057004F13C0204F19401EA
:10E4100004F15400FFF753FF38BD38B504460D46EC
:10E4200043698B6083698B81012380F83C30FFF75F
:10E43000B3FF48B9032384F8313004F19403C4F8DE
:10E44000A4300023184638BD02232B750421204632
:10E45000FFF7CEFF03460028F4D1052384F83130BE
:10E46000EBE738B504460D46C3698B60036A8B81C0
:10E47000012380F83C30FFF78FFF48B9042384F86C
:10E48000313004F19403C4F8A4300023184638BD99
:10E4900002232B7504212046FFF7AAFF034600281C
:10E4A000F4D1062384F83130EBE780F83010704760
:10E4B000F8B5002977D00F46002876D0044601F140
:10E4C0007800FFF77AFF002871D04FF0000C84F835
:10E4D00002C0251D07F178060FCE0FC50FCE0FC560
:10E4E00096E8070085E8070084F830C0D7F8A43024
:10E4F0006363D7F8A830A3634FF6FF73A4F8A8307E
:10E5000004F19403C4F8A4300722614604F1AA0080
:10E5100001F0E8FE237813B9FF2384F8543004F1A6
:10E520005501C4F8941094F82430A3B31F23A4F821
:10E53000983004F198023846FFF7F3FD0346B8BB64
:10E5400004F17401C4F89C1094F824303BB31F23E9
:10E55000A4F8A03004F1A00207F13C00FFF7E1FDB0
:10E56000034628BB012384F85130A269A4F848204F
:10E5700084F83C300021216484F85010636963649E
:10E5800004F13C0204F15400FFF799FE034678B908
:10E59000012222700CE01F23A4F89830C9E71F2342
:10E5A000A4F8A030D6E70E2302E00E2300E00723F4
:10E5B0001846F8BD0378002B00F0A28070B50D4618
:10E5C0000446A17007220021AA3001F08BFEE388E7
:10E5D00013B1A378012B3BD0E37913B1A378022BBD
:10E5E00036D029462046FFF791FEA070636B1BB121
:10E5F0000338C0B2012837D9002384F8B33004F1BE
:10E600003C0518220021284601F06CFE012384F805
:10E610003C3004F12C063046FFF7E2FE002832D0F1
:10E62000E36A84F8513094F8243033B13046FFF770
:10E63000D7FE60B3A36A84F85230002384F85030C8
:10E64000A378042B2BD8DFE803F0432634393E00AF
:10E65000636B2BB1012284F8B12008209847C0E7F2
:10E66000002384F8B130BCE76279002AC4D094F862
:10E67000B220002AC0D184F8B420012284F8B3204B
:10E6800007209847BBE7012384F85130CBE70123EB
:10E6900084F85230D1E729462046FFF75DFEA37883
:10E6A000D3B9636B7BB394F83100984700231846C5
:10E6B00070BD29462046FFF75EFEF0E7294620465A
:10E6C000FFF7ABFEEBE729462046FFF7CAFEE6E779
:10E6D000002384F83130E2E72A46D4F8A41004F18C
:10E6E0005400FFF7ECFD03460028E0D194F8301009
:10E6F00094F85400FFF7E5FD03460028D1D0D6E793
:10E700000823184670470023D1E7002380F8B23071
:10E710008A88B0F8A8309A4200D070470379002B5D
:10E72000FBD110B504460121FFF744FF10B1A36BE4
:10E7300003B1984710BD0B88262B04D10B7A013BFF
:10E74000DBB2012B00D9704710B504468078FFF783
:10E75000C9FD01462046FFF72DFF10B1A26B02B1A3
:10E76000904710BD08B50A460388112B09D0262B07
:10E770000CD0102B00D008BD01461046FFF7BEFD9F
:10E78000F9E701461046FFF7C0FFF4E701461046DF
:10E79000FFF7D1FFEFE7704775DF704776DF70470F
:10E7A0007ADF70477BDF704700230BB10020704792
:10E7B00003EB83018A0006498A5A824201D0013361
:10E7C000F3E703EB83039A0008461044704700BF49
:10E7D00084310020F0B484881619944294BF241B1D
:10E7E000A41AC2889F189A4294BF921AD21A4B88D0
:10E7F0000588AB420ED3408883420ED88B88A34253
:10E800000DD3B3420DD8CB8893420CD3BB420CD866
:10E81000012000E00020F0BC70470020FBE7002052
:10E82000F9E70020F7E70020F5E70020F3E7000014
:10E8300008B5024B9B6903B1984708BD68310020B9
:10E8400010B5FFF7A9FF044608B1112803D1B4FAA7
:10E8500084F0400910BDFFF7EBFFF8E730B583B057
:10E8600084B22046FFF7A0FFA0B10546027A154BFF
:10E870001B7B9A4210D300230372124B1B7CB3B94B
:10E88000104B5B6933B100228DF80420ADF80640CF
:10E8900001A8984703B030BD00F10A012046FFF7F8
:10E8A000CFFF0028F6D02B7A01332B72F2E73B2101
:10E8B0002046FFF773FF0028E2D00828E0D0FFF7DA
:10E8C000B7FFDDE76831002010B58088FFF76CFFE7
:10E8D00038B104464068FBF7D7FD18B94FF6FF730F
:10E8E000238010BDFFF7A4FFF8E7000000B583B058
:10E8F0000B46497A71B91A7A4AB90E4A51680246EA
:10E900005868FBF7A3FD88B1FFF792FF0EE0094AB4
:10E910009168F4E700221A72064B5B6933B1012259
:10E920008DF80420ADF8060001A8984703B05DF803
:10E9300004FB00BF6831002070B5C37B8688012BC3
:10E940001DD104464FF6FF70FFF72EFF0546B8B104
:10E9500006800023037200F10A030E4A03CAC5F8B9
:10E960000A00184659604FF6FF7340F2F31204F1A3
:10E970001001FFF72FFF6872074BDB8923B170BDD1
:10E980000420FFF755FFFAE729463046FFF7AEFFB0
:10E99000F5E700BF983100206831002070B50646C9
:10E9A00085882846FFF700FF70B104464FF6FF73D5
:10E9B00040F2F31206F108010A30FFF70BFF607214
:10E9C00021462846FFF792FF70BD0000C288114B18
:10E9D000DB899A4200D07047038A022BFBD170B5C5
:10E9E000044685882846FFF7DFFE064640B104F15D
:10E9F000120000F071F920B131462846FFF776FF8A
:10EA000070BD7068FBF740FD0028F9D0FFF710FFDC
:10EA1000F6E700BF6831002008B50388112B0CD041
:10EA200006D9122B0CD0502B06D1FFF7CFFF03E0F5
:10EA3000102B01D1FFF780FF08BDFFF745FFFBE773
:10EA4000FFF7ACFFF8E70000F8B5002836D006461F
:10EA50001C4F3C4605460FCD0FC495E8070084E8DF
:10EA60000700194B3B603068F0B1FFF799FE034691
:10EA700010BB3268144B1068516803C30024D4B92A
:10EA80001249A30023449A0088184FF6FF738B5253
:10EA90000F4B03EB441343600E4A00210430FBF795
:10EAA000BFFC68B90134EAE70748FFF77BFE03467D
:10EAB0000028E3D000E000231846F8BD0E23FBE752
:10EAC0000323F9E7683100209831002084310020C9
:10EAD000A03100205DE80100132801D90020704713
